{
  "contractName": "Contador",
  "abi": [
    {
      "inputs": [
        {
          "internalType": "uint256",
          "name": "inicio",
          "type": "uint256"
        }
      ],
      "stateMutability": "payable",
      "type": "constructor"
    },
    {
      "inputs": [],
      "name": "count",
      "outputs": [
        {
          "internalType": "uint256",
          "name": "",
          "type": "uint256"
        }
      ],
      "stateMutability": "view",
      "type": "function"
    },
    {
      "inputs": [],
      "name": "increment",
      "outputs": [],
      "stateMutability": "nonpayable",
      "type": "function"
    },
    {
      "inputs": [],
      "name": "decrement",
      "outputs": [],
      "stateMutability": "nonpayable",
      "type": "function"
    },
    {
      "inputs": [],
      "name": "reset",
      "outputs": [],
      "stateMutability": "nonpayable",
      "type": "function"
    },
    {
      "inputs": [],
      "name": "getContador",
      "outputs": [
        {
          "internalType": "uint256",
          "name": "",
          "type": "uint256"
        }
      ],
      "stateMutability": "view",
      "type": "function"
    }
  ],
  "bytecode": "0x608060405260405161029a38038061029a83398181016040528101906100259190610068565b805f8190555050610093565b5f80fd5b5f819050919050565b61004781610035565b8114610051575f80fd5b50565b5f815190506100628161003e565b92915050565b5f6020828403121561007d5761007c610031565b5b5f61008a84828501610054565b91505092915050565b6101fa806100a05f395ff3fe608060405234801561000f575f80fd5b5060043610610055575f3560e01c806306661abd146100595780632baeceb714610077578063bb8be3af14610081578063d09de08a1461009f578063d826f88f146100a9575b5f80fd5b6100616100b3565b60405161006e9190610110565b60405180910390f35b61007f6100b8565b005b6100896100d0565b6040516100969190610110565b60405180910390f35b6100a76100d8565b005b6100b16100f0565b005b5f5481565b5f808154809291906100c990610156565b9190505550565b5f8054905090565b5f808154809291906100e99061017d565b9190505550565b5f8081905550565b5f819050919050565b61010a816100f8565b82525050565b5f6020820190506101235f830184610101565b92915050565b7f4e487b71000000000000000000000000000000000000000000000000000000005f52601160045260245ffd5b5f610160826100f8565b91505f820361017257610171610129565b5b600182039050919050565b5f610187826100f8565b91507fffffffffffffffffffffffffffffffffffffffffffffffffffffffffffffffff82036101b9576101b8610129565b5b60018201905091905056fea264697066735822122048d48f80b515d40f28f489dec9dc8de96eb4a57b3c03e9a432f20952fd4c23c864736f6c63430008150033",
  "immutableReferences": {},
  "source": "// SPDX-License-Identifier: MIT\npragma solidity >=0.4.22 <0.9.0;\n\ncontract Contador {\n    uint public count;\n    constructor(uint inicio) payable {\n        count = inicio;\n    }\n    function increment() public {\n        count++;\n    }\n    function decrement() public {\n        count--;\n    }\n    function reset() public {\n        count = 0;\n    }\n    function getContador() public view returns (uint) {\n        return count;\n    }\n}",
  "sourcePath": "/Users/usuario00/Desktop/eth_proyects/truffle-start/contracts/Contador.sol",
  "compiler": {
    "name": "solc",
    "version": "0.8.21+commit.d9974bed.Emscripten.clang"
  },
  "schemaVersion": "3.4.16",
  "updatedAt": "2023-09-16T13:04:48.252Z",
  "devdoc": {
    "kind": "dev",
    "methods": {},
    "version": 1
  },
  "userdoc": {
    "kind": "user",
    "methods": {},
    "version": 1
  }
}